{
  "contractName": "DappTokensale",
  "abi": [
    {
      "inputs": [
        {
          "internalType": "contract DappToken",
          "name": "_tokenContract",
          "type": "address"
        },
        {
          "internalType": "uint256",
          "name": "_tokenPrice",
          "type": "uint256"
        }
      ],
      "payable": false,
      "stateMutability": "nonpayable",
      "type": "constructor"
    },
    {
      "constant": true,
      "inputs": [],
      "name": "tokenContract",
      "outputs": [
        {
          "internalType": "contract DappToken",
          "name": "",
          "type": "address"
        }
      ],
      "payable": false,
      "stateMutability": "view",
      "type": "function"
    },
    {
      "constant": true,
      "inputs": [],
      "name": "tokenPrice",
      "outputs": [
        {
          "internalType": "uint256",
          "name": "",
          "type": "uint256"
        }
      ],
      "payable": false,
      "stateMutability": "view",
      "type": "function"
    },
    {
      "constant": false,
      "inputs": [
        {
          "internalType": "uint256",
          "name": "_numberOfTokens",
          "type": "uint256"
        }
      ],
      "name": "buyTokens",
      "outputs": [],
      "payable": true,
      "stateMutability": "payable",
      "type": "function"
    }
  ],
  "bytecode": "0x608060405234801561001057600080fd5b506040516102343803806102348339818101604052604081101561003357600080fd5b810190808051906020019092919080519060200190929190505050336000806101000a81548173ffffffffffffffffffffffffffffffffffffffff021916908373ffffffffffffffffffffffffffffffffffffffff16021790555081600160006101000a81548173ffffffffffffffffffffffffffffffffffffffff021916908373ffffffffffffffffffffffffffffffffffffffff16021790555080600281905550505061014d806100e76000396000f3fe6080604052600436106100345760003560e01c80633610724e1461003957806355a373d6146100675780637ff9b596146100be575b600080fd5b6100656004803603602081101561004f57600080fd5b81019080803590602001909291905050506100e9565b005b34801561007357600080fd5b5061007c6100ec565b604051808273ffffffffffffffffffffffffffffffffffffffff1673ffffffffffffffffffffffffffffffffffffffff16815260200191505060405180910390f35b3480156100ca57600080fd5b506100d3610112565b6040518082815260200191505060405180910390f35b50565b600160009054906101000a900473ffffffffffffffffffffffffffffffffffffffff1681565b6002548156fea265627a7a72315820ade0a0211e6e7be3b29cf2ec8d96dcf2d45627c8f684d74d49d3e3d71e03339064736f6c63430005100032",
  "source": "pragma solidity ^0.5.16;\r\n\r\nimport \"./DappToken.sol\";\r\n\r\ncontract DappTokensale {\r\n\taddress admin;\r\n\tDappToken public tokenContract;\r\n\tuint256 public tokenPrice;\r\n\r\n\tconstructor (DappToken _tokenContract, uint256 _tokenPrice) public{\r\n\t\t//assign admin\r\n\t\tadmin = msg.sender;\r\n\t\t//set token contract\r\n\t\ttokenContract = _tokenContract;\r\n\t\t//set token price\r\n\t\ttokenPrice = _tokenPrice;\r\n\t}\r\n\r\n\t//buy tokens\r\n\tfunction buyTokens(uint256 _numberOfTokens) public payable{\r\n\t\t\r\n\t}\r\n}",
  "sourcePath": "E:/Crypto/git/token_sale/contracts/DappTokenSale.sol",
  "compiler": {
    "name": "solc",
    "version": "0.5.16+commit.9c3226ce.Emscripten.clang"
  },
  "schemaVersion": "3.4.0",
  "updatedAt": "2021-05-03T23:06:13.099Z",
  "networkType": "ethereum",
  "devdoc": {
    "methods": {}
  },
  "userdoc": {
    "methods": {}
  }
}